:400000000040002011000000811A0000811A000010B501F053FD0000F7B572B680220021D200684802F049FE80220021D200664802F043FE0022FF251100644E2036634B3E
:40004000D0584B000700284009184800013001333018AF43F31801900198834207D0581E0078C0190400187802332070F4E70432202AE4D10126564BE0321A80554B564AE1
:400080001E70564B56491A60564A574BC0251A60EE22564B12021A60AA22554B00241A609923544A1B041360534A544F1160544A54491360544A11603C21544A1360544AA8
:4000C0001360544A13788B4328390B431370524A023113780B431370CE22504B1A60504A504B1A60FF22504B1A60504A504B1A60504B514A1D60514B1D60514B1A6002229A
:40010000504B1A60504A514B1A602822504B1A60C322504B92021A6090224F4B12021A6030224E4B1A6012233B6001F093FE4C4802F0D6FB182001F029FE01F0B5FD802191
:40014000484A494B49001A60484B494A1C60494B07201A60484A1460484A1A60484A11608021484AC9001A60474A1160474A48491A608222474B12061A604222464B1C605D
:40018000464B1A60464B92191A6001F035FD072001F05EFD434B444A1C6011233B600E3B1360424A300013608022414B12061A60404B1D60404B1D60404B1C6001F052FC80
:4001C000F7BDC04600300F4000400F407C2B010000600F4002600F40AA33003300000240000060602222222200010240000302400004024000500F4008500F403000104001
:4002000010500F400000B4B418500F4020500F4030500F4001700F4000700F4000000440B10DD8000800044000010440B66DDB000801044000020440809DC40018020440A8
:400240000803044000040440716C03000804044000050440080504400806044008070440001BB7000600008004010B400403014041FF0080000001400003014040FF008084
:400280000803014042FF00800C03014043FF0080191F000008010B4000010B404C010140280101400C020B40300030403000314000003A4000033A4040033A40000E3F4074
:4002C00010B5064C2378002B07D1054B002B02D0044800E000BF0123237010BD080900200000000014350000084B10B5002B03D00749084800E000BF07480368002B00D108
:4003000010BD064B002BFBD09847F9E7000000000C09002014350000C000002000000000C380053B0160828004211BB2053AC384C38312B2030082848283012201844184A9
:400340000F4944331A705A7001650E490023816401005C3103630387C386438783870364C36403614361836183650B7003660B7283660B7403670B76034B18601000704757
:40038000EF8B5E00FFFFFF002409002010B5044B1B68303316C816C306C806C310BDC04624090020F0B585B003900C0015001E00824201DA05000392A64202DA23003400B3
:4003C0001E00124B1B681A006432127892070CD50A9A210000921F6E2A0033000398B847002802D110E0013424B2A6420CDB039FBD42F8DB054B38001B680A9A1B682100E4
:40040000013798473FB2F3E705B0F0BD2409002007B50021064B1A68D3889288013B013A00901BB212B20800FFF7BCFF07BDC04624090020014B1B689864704724090020CF
:40044000014B1B68D864704724090020F0B58BB00691060011000193119CD62815D007D8B52818D0C42814D0B02817D1F82615E0E4280CD003D8DC2810D19A260EE0F62800
:400480000BD0FC280AD1812608E0992606E0842604E08E2602E0E62600E094266589B3B2AB4200D25BE1A2899A4200D257E10622A35E9AB20392002A00D150E1D208029261
:4004C0009AB2520702D0029A013202922269002A02D0701B125C03928AB20592A14A106802006C321278920700D496E023898AB2013BD318069A039D013AAA181BB2856EBE
:4005000012B20698A84705902179002933D163890820225EF31A5343029A049153430821625E0499914200DB19E1029A039DD2180792079A934219D02E005A1C06922268FE
:40054000083ED75CB6B2002D0CD0012301981F4200D11098013D059BADB298477F08B542F1D100E02E00069B3500E2E7049A013292B20492D3E7012900D0F0E065890822AA
:40058000A35E761B5E430623E55E00237543FF2602930822A35E029A9A4200DBDFE0039BEB1804932B00049A93422ED05A1C06922268019FD05C019A80233240424311004C
:4005C000109A5B001B1A32405A438A18FF2109020F404743BC46109F120A0F405F4367443F0A3940FF2732400A4301993F0439404843109939404B43C3181B0A3B401A4393
:400600001000059B9847069BCDE70622A35EED18029B01339BB20293BBE72279002A44D10822A35E751B5D43029B5D43059B0493059A049B9B1A0821625E9BB2934200DBD1
:400640008DE06B461E8B029B5B190993039B0793099B9D4225D037006B1C0893236808375D5DBFB2079B002B17D06A461021515E01223C4B30B21B681B68154201D0019A6F
:4006800000E0109A9847079B0136013B9BB2B6B26D080793B742E5D100E03700089D3E00D6E7049B01339BB2C1E7012A57D1761B0822A55E6E437343059E0293059B082151
:4006C000625EF31A9BB2934249DA6B461D8B039B5B199BB20493029B049A954237D0FF205A1C079222680199D25C8023FF2701405143080010995B009B1A39405943411833
:40070000FF20090A3940019F000207405743BC46109F07405F4367443F0A3840FF27014301983F0438404243109838404343D3180A000C491B0A3B4009681A4333B228B225
:400740000F6801351900B847ADB2079BC4E70622A35E029A0136D3180293B6B2AEE70BB0F0BDC0462409002013B5044C246830340194049C0094FFF769FE13BD2409002089
:40078000F0B50F001600050085B003903078002831D01A4B81B21B6801365A8F9142F5D39C8F8C42F2D30424195F0A2801D10D00ECE71C6C002C02D0821AA45C01E0DC8E4C
:4007C000E4B22A19914206DC45211A8F5956039D8A18D7193FB2DA6C290000929B6C3A00FFF7C2FF054B1B6844331B785BB21C1965192DB2CAE705B0F0BDC04624090020AF
:40080000F0B50F001600050085B0029003933078002833D01A4B81B21B6801365A8F9142F5D39C8F8C42F2D30424195F0A2801D10D00ECE71C6C002C02D0821AA45C01E09E
:40084000DC8EE4B22A19914208DC1A00453212781B8F52B2D318DF19029D3FB20A9B290000933A00039BFFF77FFF054B1B6844331B785BB21C1965192DB2C8E705B0F0BD08
:4008800024090020032807D8044BC0001B681818032381655C3003707047C0462409002010B5642001F0EAF90524002001F098FB322001F0E3F9012001F092FB013C3220D3
:4008C00001F0DCF9002CF0D10121200001F0B8FB0A2001F0D3F90A2001F0D0F90121200001F0AEFB0A2001F0C9F90A2001F0C6F90121200001F0A4FB0A2001F0BFF90A2032
:4009000001F0BCF92000E02101F09AFB0121080001F096FB322001F0B1F92000E02101F08FFB0321012001F08BFB322001F0A6F90121200001F084FB0A2001F09FF93220E0
:4009400001F09CF92000B02101F07AFB0821012001F076FB8021012001F072FB0121080001F06EFBDF21012001F06AFB0121080001F066FB0F21012001F062FB2100012076
:4009800001F05EFB2000F02101F05AFB2100012001F056FB20003A2101F052FB6021012001F04EFB2000E62101F04AFB0121080001F046FB4521012001F042FB4721012066
:4009C00001F03EFB2000B42101F03AFB0221012001F036FB0D21012001F032FB2100012001F02EFB2B21012001F02AFB2821012001F026FB2100012001F022FB21000120F2
:400A000001F01EFB2100012001F01AFB2000B62101F016FB0121080001F012FB1D21012001F00EFB2100012001F00AFB0C21012001F006FB0921012001F002FB21000120F7
:400A400001F0FEFA2100012001F0FAFA20002A2101F0F6FA2100012001F0F2FA2100012001F0EEFA0121080001F0EAFADF21012001F0E6FA20002B2101F0E2FA2100012074
:400A800001F0DEFA2100012001F0DAFA0121080001F0D6FA0F21012001F0D2FA2000132101F0CEFA2000382101F0CAFA2000292101F0C6FA8823F0225B005200084909480B
:400AC000FFF72EFC08490120FFF7DCFE20000749FFF7D8FE06490320FFF7D4FE10BDC0463B0B0000A00900207D0B0000F90B0000350C000073B516001D0001AC030A2370C7
:400B000060700B0AE17000202A21A37001F098FA04222100012001F0A5FA330A23702B212B0A00206670A370E57001F089FA04222100012001F096FA73BD37B5130C01AC92
:400B40002370130A6370E023A270FF3382B29A4213D810238AB2FF339A420ED8451C0A004B1C2900FFF7C6FF2C21002001F068FA03222100012001F075FA37BDF0B585B042
:400B80001F000A9B03AD00921A0C2A701A0A6A70E02286B2FF32AB70964227D88BB2019310238CB2FF339C4220D86C46248894421CD8BAB29A4219D80A003B000099FFF795
:400BC00099FF2C21002001F03BFA009BB34210DB019CA74207DB032229000120013401F041FAA4B2F5E7731C9EB2EEE70120404200E0002005B0F0BD73B5E02584B2FF3595
:400C0000AC4214D810248EB2FF34A6420FD896B2AE420CD89DB2A54209D8904201D0994205D1069C0094FFF7A9FF002001E00120404276BDF8B5E0270E00110006AA10CAD5
:400C4000FF37158882B2BA421DD8B2B294461022FF32944517D88AB2BA4214D810229FB2FF3297420FD83200FFF744FF2C21002001F0E6F903226A43012092B2210001F08A
:400C8000F1F9002001E001204042F8BDF0B50C00214D89B0019002922900032205A802F003F8E91C032206A801F0FEFFA91D032207A801F0F9FF2100029A0B1B9A4228D983
:400CC0000B785AB2002A03DA7F2207AD134006E0402205AD134200D106AD3F2213400022E81C0390280001270C4E36783E42FAD16E460B4F36793E7006780A4F01303E70B2
:400D0000039E8642EFD10132D2B29342EAD20131D2E709B0F0BDC046302A010060000F4041000F4051000F40F8B5E0270E00110006AA10CAFF37158882B2BA421BD8B2B2FA
:400D400094461022FF32944515D88AB2BA4212D810229FB2FF3297420DD83200FFF7CAFE2C21002001F06CF901202A002100FFF78DFF002001E001204042F8BD10B50020FD
:400D8000FFF746FB0A21144A0800FFF7F9FC134A0A21FA20FFF7F4FC114A4B210A20FFF7EFFC104A4B21FA20FFF7EAFC0E4A8C210A20FFF7E5FC0D4A8C21FA20FFF7E0FC74
:400DC0000B4ACD210A20FFF7DBFC0A4ACD21FA20FFF7D6FC10BDC046392A0100432A01004F2A0100562A01005C2A0100632A01006C2A0100762A0100F0B58BB0049310AB76
:400E00001B880391059311AB197814234B43140005000C330422632804D80532824292415242023253430398049E5B1086197010C61A059BE7187F107B1F11277F424F43C6
:400E4000DF19012902D13C48FFF7A0FA3BB2069333B20793642D19D1FF25384E2D023368AB420DD06B46684614229B5E6A461021525E21B20C24005F0095FFF793FA35607D
:400E8000FF231B0200932E4A00234CE009AF2A002C49380001F01AFF092D27D94B2D06D8322D07D8192D07D8FF252D0405E0FF252D0202E0244D00E0244D252209AB9A70DB
:400EC00000221E4EDA7033689D420DD06B46684614229B5E6A461021525E21B20C24005F0095FFF75FFA356000951AE025237B700023FF25114EBB7033682D04AB420DD0A0
:400F00006B46684614229B5E6A461021525E21B20C24005F0095FFF745FA3560FF231B04009300233A0006990798FFF769FC0848FFF72CFA0BB0F0BD08360000200A0020AB
:400F4000912A0100962A010000FFFF0000A5FF001C360000F0B58DB0059312AB1B880492069313AB1A7814230391032153430C334B430290039905985B1008184010C31AD2
:400F800006990893049B5B181121494251435B10053B5B180993012A02D12B48FFF7F6F9029B2C2B21D9312B22D9362B22D96B460C255D5F6B4610269E5F6B461427DF5F37
:400FC0006B46FF2418229B5E00223100009228003A0024040793FFF7E5F90094079B3A0031002800FFF7DEF905E0FF24240202E0164C00E0164C174D2B689C420FD06B465E
:4010000018229B5E6A461421525E69461020095E68460C26805F0094FFF7C4F92C60029A0D490BA801F052FE6B462421595E6B460BAA2020185E00230094FFF7E1FB074889
:40104000FFF7A4F90DB0F0BD0836000000FFFF0000A5FF00300A0020992A01001C360000F0B589B005930EAB1C880FAB04921A78142303910A21112753430C334B430600D7
:40108000039905985B1009184910CB1A06937F42049B57431B195B10053BDB190793012A02D1B448FFF772F973B2B34D002B00DB2CE16B467F201C27DF5F6B46304018266A
:4010C0009E5F2B681A00092800D905E101F040FC051C36516B859FB6D0EAA84B9A420ED06A461421525E69461020095E684623B20C24005FA14C0094FFF754F92C609F4BAE
:401100009F4A0093002332E0FF231B049A420FD06A461421525E69461020095E684623B20C24005FFF2424040094FFF73BF92C60FF231B040093934A002318E0FF231B0473
:401140009A420FD06A461421525E69461020095E684623B20C24005FFF2424040094FFF721F92C60FF231B0400930023864A3900F7E0FF231B049A420FD06A461421525EE4
:4011800069461020095E684623B20C24005FFF2424040094FFF706F92C60FF231B0400937A4A0023E3E7FF231B049A420FD06A461421525E69461020095E684623B20C2468
:4011C000005FFF2424040094FFF7ECF82C60FF231B0400936E4A0023C9E7FF231B049A420FD06A461421525E69461020095E684623B20C24005FFF2424040094FFF7D2F864
:401200002C60FF231B040093624A0023AFE75B4B9A420ED06A461421525E69461020095E684623B20C24005F544C0094FFF7BAF82C60524B584A0093002398E7FF231B047F
:401240009A420FD06A461421525E69461020095E684623B20C24005FFF2424040094FFF7A1F82C60FF231B0400934C4A00237EE7FF231B049A420FD06A461421525E69469A
:401280001020095E684623B20C24005FFF2424040094FFF787F82C60FF231B040093404A002364E7FF231B049A420FD06A461421525E69461020095E684623B20C24005FF0
:4012C000FF2424040094FFF76DF82C60FF231B040093344A00234AE7FF231B049A420FD06A461421525E69461020095E684623B20C24005FFF2424040094FFF753F82C60ED
:40130000FF231B040093284A002330E7FF272B683F02BB420DD06A461421525E69461020095E684623B20C24005F0097FFF73AF82F60032E18D86B461C21595E6B46300077
:4013400018269E5FFF231B020093002301F000FB02040608154A04E0154A02E0154A00E0154A3000FFF74CFA1448FFF70FF809B0F0BDC04608360000280A002000FFFF005C
:401380009E2A0100A92A0100B42A0100BF2A0100CA2A0100D52A0100E02A0100EB2A0100F62A0100012B01000B2B0100132B01001E2B0100292B0100342B01001C3600009C
:4013C000F0B58BB0049310AB1B880392059311AB1A7814230E00062153430C334B430499040070185B104010C31A05990693039B5B181121494251435B10053B5B180793BC
:40140000012A02D12C48FEF7C1FFFA212B48C900604301F0A7FA2A4B12300500984208D8284B984208D8284B984207D8FF24240405E0FF24240202E0244C00E0244C254F9B
:401440003B689C420DD06B4614229B5E6A461021525E69460C20095E30B20094FEF7A2FF3C6008AE2A001C49300001F02FFC1B4B9D4207D8B378F3707378B37033787370D4
:4014800020233370F3786A463371B3781C21515EF3702E23B370283373716A4600231820105EB37132000094FFF7AAF90C48FEF76DFF0BB0F0BDC046083600005B0300009F
:4014C0007E0400004C0400001A04000000FFFF0000A5FF00180A00203F2B0100E70300001C360000F0B51500632289B01E000EAB1F880FAB0C0019781423824292414B43C8
:40150000524203320C33534311220390A01940105B105242C31A4A430493EB195B10053B9B180593012902D11B48FEF72FFF20B26C4629B2FF2532B23BB21426A75F1026F7
:40154000A65F2D023400039E0095632E0CD906AEFEF728FF039A1149300001F0B7FB4323F370002333710BE006AEFEF71BFF039A0A49300001F0AAFB4323B3700023F370BA
:401580003200390020000095FFF73AF90448FEF7FDFE09B0F0BDC04608360000962A01001C36000037B506AC07AD2D78248801950094FFF797FF37BD37B506AC07AD2D78A5
:4015C000248801950094FFF78DFF37BDF0B5142587B002910A2104930CAB1B88039205930DAB1A78070055430C354D43049802996B100D186D10ED1A0599039B5E18761061
:40160000731F1126764256439E19012A02D16E48FEF7BCFE6D4C36B22DB2042F5FD005D8012F00D191E0022F74D0A9E0102F20D0202F03D0082F00D0A2E035E0FF272368A7
:401640003F04BB420FD06B4614229B5E9C466B4610215A5E0C20195E0820185E00976346FEF7A0FE2760FF231B040093584A0023A0E0FF2723683F04BB420FD06B46142284
:401680009B5E9C466B4610215A5E0C20195E0820185E00976346FEF785FE2760FF231B0400934C4A002385E0FF2723683F04BB420FD06B4614229B5E9C466B4610215A5E17
:4016C0000C20195E0820185E00976346FEF76AFE2760FF231B0400933F4A00236AE0FF2723683F04BB420FD06B4614229B5E9C466B4610215A5E0C20195E0820185E0097B7
:401700006346FEF74FFE2760FF231B040093334A00234FE0FF2723683F04BB420FD06B4614229B5E9C466B4610215A5E0C20195E0820185E00976346FEF734FE2760FF2317
:401740001B040093264A002334E0FF2723683F04BB420FD06B4614229B5E9C466B4610215A5E0C20195E0820185E00976346FEF719FE2760FF231B0400931A4A002319E07C
:40178000FF2723683F02BB420FD06B4614229B5E9C466B4610215A5E0C20195E0820185E00976346FEF7FEFD2760FF231B02009300230D4A31002800FFF722F80B48FEF70A
:4017C000E5FD07B0F0BDC046083600001C0A0020432B01004A2B0100512B0100602B0100662B01006C2B0100762B01001C360000F0B58BB01F0010AB1E8811AB15001A784A
:4018000014230C000A2153430C334B430590E0195B1040101B39C31A51430393AB195B10053B5B180493012A02D11048FEF7AEFD059A0F4907A801F049FA3AB20D4F33B2BD
:4018400029B220B20097FEF7ADFD6B461021595E6B4607AA0C20185E00230097FEF7D0FF0548FEF793FD0BB0F0BDC04608360000962A01002FFFAD001C360000F7B5012031
:4018800000F0BAFB00F0D0FBFFF70AF86648FEF77DFD0020FEF7D4FD6448FEF7CBFD62B600F012FC00F08EFD00F0BCFF5F48FEF7AFFDB8225E4BFF3201935E4B44210093F7
:4018C0002820CB23FFF730FAFA20C00000F0D6F9594CB92263785F210193D723802000931933FFF7BDFB0125FFF748FA00F0E6FF0222A378002801D1134300E09343A370D8
:4019000000F0E4FFA378002801D12B4300E0AB43A37000F05DFB002805D1A388002B01D0A08000E0A580A0784126C0B200F088F8002000F085FF0100002000F093FF63786B
:401940000700A0792322C0B201930096F0230A21FFF752FA6378E0790193EB23C0B200965B002322FA21FFF7F5FA207A6378B619C0B201930096F02364220A21FFF770FB63
:40198000637860890193EB2380B200965B006422FA21FFF711FE6378413601930096F023A5220A213800FFF70BFD6378A0890193EB2380B200965B00A522FA21FFF7F2FDB1
:4019C000A07B63784136C0B201930096F023E6220A21FFF7FBFD6378A0880193EB2300965B0080B2E622FA21FFF702FF237A134E032B05D1736B022B02D1012000F0DCFA01
:401A0000237ADBB27363237A032B02D0002000F0D3FA012000F0B4F8012000F0A5F8012000F096F862E7C0461C360000FFFFFF00B2070000C4000020300900204408002022
:401A40007FB5012202AB69469A714F3202920022087018005A71DA7105911A7100F026FD07B000BD054A1368002803D0802109060B4301E05B005B081360704780033A409A
:401A800010B501F0E5F803680C2B00D1FEE7FEE703000849084A086810B5C3189A1A802A01DC0B6005E001F0D3F80C2303600120404210BD80080020480A0020F8B500256B
:401AC0000F49104B01394A1C14D000221F685C689E68A018B24203D0B858A0500432F8E70200DE68141AA64201D020C2FAE710330139E8E701F0B2F8FFF7C0FEFEE7C04630
:401B0000010000009030010001210D4A70B5136814008B43136000230A4D0B4E0B489A002900032B00D8B15801338150302BF6D1FEF772FA012223681343236070BDC0463B
:401B400000001040811A0000000000000000002008230449C0000A689A43D2B2034013430B607047000404401023044900010A689A43D2B2034013430B60704700040440F5
:401B80002023044940010A689A43D2B2034013430B6070470004044000233F2030B50C490C4C0A681D5D0240AA4201D1033303E001332E2BF5D12B3B0749084A0868024058
:401BC0000A60074A9B181B78064ADBB2136030BD2CFF0B40A82E010000002240FFFFFFBFCDF1FF0F28FF0B40024B18684000C00F7047C046000022401F2800D901BE034BD6
:401C00008000C318186819607047C04640000020F8B504000E00032900D901BE1F2C00D901BE032725003D40BD400635AF40AE4000F05FFEA408054BA400E4182368BB437A
:401C40001E43266000F059FEF8BDC04600E400E01F2318401E3B8340014A13607047C04600E100E01F2318401E3B8340014A13607047C04680E100E001BE704770B5802513
:401C800004002D02064BAC4205D9586800F028FE044BE418F6E79868604300F021FE70BD840800200080FFFFF0B585B000F0DEF8002855D000F01DFE002301903F20294950
:401CC000294C0A681D5D0240AA4201D1033303E001332E2BF5D12B3B00211F20234A116023490A68024204D10A688243133802430A60204C204A2168204E1140A022520316
:401D000011431F4A302053438022D2019B18DB0B013B0B43236033680025039300F0F0FD8021184AC90513680B4313602268164B1A40170001201035FFF7A0FFAB053B4320
:401D40002360F02DF6D10120FFF798FFFF23094A9B053B431360039B0198336000F0CDFD05B0F0BD2CFF0B40A82E010028FF0B4034FF0B400800224000F800C03000104083
:401D800040420F0000002240FFFF3FC030B587B0040000F0AEFD0500FFF726FF0022904202D0FFF7F9FE0122104B1148196802AB02911049096803910F490C19033C21785A
:401DC00004910E49096805910D490091694601930C4B19600C4908601B68012A01D1FFF763FF280000F089FD07B030BD08010B401700008000010B40A82E01003000104091
:401E0000B6EA0000080010400400104010B5034B1B7B584300F064FD10BDC0468408002001200A4A136883431360022311689943116007492E330A689A43203B1A430A600C
:401E400007220B68934303430B60704700002240000F224010B5FFF7E3FF8021024A090613680B43136010BD00002240014B1868C00F70470000224010B500F03AFDC02130
:401E8000034A090213680B43136000F036FD10BD00010B4010B5802400F02BFD0749084B0A68E4011A4022430A600A6813408022120213430B6000F020FD10BD00010B404C
:401EC000FF3FFFFF70B5050000F013FD0E4B04001A68C0231B02134011D10C480C49054028000E680B4A3240104308600A68012B01D1FFF7C1FF200000F0FFFC70BDFFF706
:401F0000C9FF0123E9E7C04600010B400404040010020B40FBFBFBFF042270B5224C2368134213D021494B6813420CD0204B5D6A48681540A8434860596A914359629B6950
:401F4000002B00D098470420FFF7BCFF80232268DB001A4215D015494A681A420DD0144A556A48682B4098434860516A114B0B405362D369002B00D098478020C000FFF7E2
:401F8000A1FF80232268DB021A420CD0074A52681A4204D0064B1B6A002B00D098478020C002FFF78FFF70BD10020B40980800206C090020FFFBFFFF7F23044AC00111686D
:401FC0000B401843C0B210607047C04600030440024B18688006C00F7047C046040304400223044940000A689A43D2B2034013430B607047000704402023044940010A685D
:402000009A43D2B2034013430B607047000504400822034B1A70034B01321A707047C04621000F4031000F4010B5044C2378002B03D1FFF7EDFF0123237010BD94090020AF
:40204000012310B5044C22781A42FCD1034B1870034B197010BDC04660000F4041000F4051000F40F0B5094C0B000126A446084F5C1AA24209D9074C24783442FBD1654680
:4020800038701C7801332C70F2E7F0BD51000F4041000F4060000F4001220A4B10B5196891431960F021C9011C68144004D001390029F9D1012003E01C20FFF7D3FD2000CA
:4020C00010BDC04610002F400120034B1A6802431A601B689843704704002F400C4A0D4B10B51A60FFF7F0FF1C20FFF7B1FD0122094B196811431960902109011868104252
:4021000004D101390029F9D1012000E0002010BD0112000000002F4010002F40F0B50600023802240D2833D8881E052803D9002B2ED101292CD10224032A29D8964227D33D
:40214000914225D3134DEE3428682F68000A20403043F026104C00023C4004432C602C68360160400124304212D1581E8341A340490192002E680A43ED341343DBB2A6439D
:402180001E432E6028680440E31A5C1EA341DCB22000F0BD14002F40FFF0FFFF044B18601B689BB2181A431E9841C0B27047C04604002F4010B503781E4A5B019B18416831
:4021C0001D4A0A431A6003781A4A5B019B1819681A4A446811401A4A2240914201D0012027E082681A610378124A5B019B181A6981688A42F3D1C2685A6103780D4A5B01F5
:402200009B185A69C1688A42E9D1012252429A610378084A5B019B189A690132DFD10022DA610378034A5B019B18D869431E9841C0B210BDA0002F40800080007F007F000A
:402240007FFF7FFF030010B5027810491201521840680F49014311601A780C491201521814680C4958680C400B49014001208C420BD1996851601A780449120152189B68E3
:402280005068181A431E9841C0B210BD20002F4008008000F7007F00F7FF7FFF70B500260B4DA819FFF7CEFF002801D001200EE00C36602EF4D10400A0362800603000194B
:4022C000FFF778FF0028F1D11034B442F5D170BDD82E01008022324B120670B51A600122304B196891431960F021C90118682D4D0126104203D001390029F7D14EE01C205B
:40230000FFF7B0FC284C29491C20FFF775FC03211C20FFF77DFC2268254B1340B0221203134323602168234B0B40934236D12268214B134023602368DB042FD422681F4B4B
:4023400013402360802322689B01134026D1320031000C20FFF7E2FE00281FD110222368934323602368134218D12368B34323602368334212D1FFF791FF00280ED110484C
:40238000FFF70CFF002809D12B68073083432B602B681840431E9841C0B200E0012070BD00042F4010002F4014002F408D240000FFFF00800000FF7FFFEFFFFFFFDFFFFF50
:4023C0000112000010B5074B1A781C00002A04D001232370FFF782FE03E0FFF77BFF0028F6D010BD95090020802210B5024B92001A60FFF751FE10BD00002F40802270B506
:402400000025012420261E4B52011A601D4BE8B21B6823422DD01C4BEB185B011B68334227D0E30523D0082823D800F091FA05080B0E1114171A1D0000F0C6F819E000F089
:40244000D5F816E000F0DAF813E000F0FDF810E000F002F90DE000F007F90AE000F00CF907E000F029F904E000F03EF901E000F09DF864000135A4B2102DC7D170BDC04606
:4024800000002F4008002F4005780102064B10B51A681C00930501D5FFF7A6FF2368DB0401D5FFF7ABFF10BD00002F400323F7B5060000930127394D012007425ED1384BA8
:4024C0001A683B041A4259D134797179621E944133686205002901D15B0503E0802149030A43DB006B60B479072C01D8240401E080242403F3791443002B01D004231C4337
:40250000290000220C310191B379D0B2834221D9082A1FD0D30003280ED901995B420868FF21383399408843F168895C99400B00019903430B600BE0FF215B4218339940FF
:40254000A8688843F168895C99400B000343AB600132D9E71C20FFF785FB124B1C432C60337A002B02D02B68032201E001222B6813431C202B60FFF76BFB00207F00FFB25E
:4025800000280AD0084B10359D4295D1009B013BDBB20093002B8DD10120FEBD20002F4008002F4008008000A0002F400122054B4001C0180368134202D003681343036001
:4025C0007047C046A0002F400121054B054A1B681B0E1370044A13680B4313607047C046AC002F4038090020A0002F400121024A13680B4313607047C0002F400D4A0E490F
:4026000013681B0E0B7013680C491B0CDBB20B70FF2311681B020B4009490B8012680888D3B203430B800121064A13680B4313607047C046E8002F403709002036090020BB
:4026400040090020E0002F400121024A13680B431360704700012F400121024A13680B431360704720012F400121024A13680B431360704740012F400B490C480B6810B5EF
:402680001B0E1B0203800A680488120CD3B2234303800B680121064A1B0ADBB21370054A13680B43136010BD68012F40640900203E09002060012F400021084B1A68084A71
:4026C00011701B6811781B0C0B430121DBB21370044A13680B4313607047C04688012F406609002080012F400121024A13680B4313607047A0012F4070B503211020FFF708
:4027000087FA23491020FFF777FA0322214B1A60214B1B68002B01DB204900E02049214A8020136840020B4313601F4A1F4B20491A60204A204B07251A6000231F4A204CB0
:402740001360204A0A6020490A60204A1168014311601F490A6802430A6001211D4A13601D4A13601D4A11601D491E4A086802408020800502430A6006211B4A1B481160BC
:402780001B4A1C490380116025604380516070BDB128000020003A4080033A40702000107020101000003A408C00008004003A4010003A400000FF0718003A401C003A40B9
:4027C00084003A400200020014003A4000033A4040033A4028023A4038023A4018023A4030003A40FEFFFFDF80003A40340A0020380A00203E180000084B10B51A68002ACA
:402800000BDB07490A68002AFCDB80211A6809060A431A600A20FFF7F9FA10BD00003A4008023A4010B5054C2378002B03D1FFF763FF01232370FFF7DFFF10BD96090020F9
:4028400010B5012804D90020FFF716FA002004E0034B8000C018006880B200B210BDC04680013A4070B504000D00012802D90020FFF702FA0B4B6200D15AA400691A0A4DF6
:402880000A482A5909B2D30F9A1848435310002901DC521053422959181800F0EDF800B270BDC046340A0020380A002010270000014B1A681A60704710023A40024B18684E
:4028C0008006C00F7047C04604060440024B1868C006C00F7047C04604060440000000000230800803D00138FDD1C046C046C0467047EFF3108072B6704780F3108870479B
:4029000070B50500FFF7F5FF0400102D04D803210E4A13688B4307E0202D07D803210B4A13688B4302390B4313600AE0302D05D80321064A13688B430139F4E70020FFF7C4
:402940009BF92000FFF7D9FF70BDC0463000104002B4714649084900095C49008E4402BC7047C046002243088B4274D303098B425FD3030A8B4244D3030B8B4228D3030CBE
:402980008B420DD3FF22090212BA030C8B4202D31212090265D0030B8B4219D300E0090AC30B8B4201D3CB03C01A5241830B8B4201D38B03C01A5241430B8B4201D34B0392
:4029C000C01A5241030B8B4201D30B03C01A5241C30A8B4201D3CB02C01A5241830A8B4201D38B02C01A5241430A8B4201D34B02C01A5241030A8B4201D30B02C01A5241A0
:402A0000CDD2C3098B4201D3CB01C01A524183098B4201D38B01C01A524143098B4201D34B01C01A524103098B4201D30B01C01A5241C3088B4201D3CB00C01A5241830830
:402A40008B4201D38B00C01A524143088B4201D34B00C01A5241411A00D20146524110467047FFE701B5002000F0F0F802BDC0460029F7D076E7704703460B437FD400229C
:402A800043088B4274D303098B425FD3030A8B4244D3030B8B4228D3030C8B420DD3FF22090212BA030C8B4202D31212090265D0030B8B4219D300E0090AC30B8B4201D3F3
:402AC000CB03C01A5241830B8B4201D38B03C01A5241430B8B4201D34B03C01A5241030B8B4201D30B03C01A5241C30A8B4201D3CB02C01A5241830A8B4201D38B02C01A60
:402B00005241430A8B4201D34B02C01A5241030A8B4201D30B02C01A5241CDD2C3098B4201D3CB01C01A524183098B4201D38B01C01A524143098B4201D34B01C01A524121
:402B400003098B4201D30B01C01A5241C3088B4201D3CB00C01A524183088B4201D38B00C01A524143088B4201D34B00C01A5241411A00D201465241104670475DE0CA0F99
:402B800000D04942031000D34042534000229C4603098B422DD3030A8B4212D3FC22890112BA030A8B420CD3890192118B4208D3890192118B4204D389013AD0921100E039
:402BC0008909C3098B4201D3CB01C01A524183098B4201D38B01C01A524143098B4201D34B01C01A524103098B4201D30B01C01A5241C3088B4201D3CB00C01A524183087C
:402C00008B4201D38B00C01A5241D9D243088B4201D34B00C01A5241411A00D20146634652415B10104601D34042002B00D54942704763465B1000D3404201B5002000F074
:402C400005F802BD0029F8D016E770477047C046014B18687047C046000900200E4B70B500251E000D4CE41AA410A54204D0AB00F35898470135F8E710F0F8F9084B0025AA
:402C80001E00084CE41AA410A54204D0AB00F35898470135F8E770BD78300100783001007830010080300100002310B59A4203D0CC5CC4540133F9E710BD03008218934248
:402CC00002D019700133FAE7704700000EB410B59DB002A9029008610B48822488604861012040421FABC881084804CBA400006801938C8100F06EF80023029A13701DB0C2
:402D000010BC08BC03B01847FFFFFF7F00090020F0B58E6885B007000C00039201939E4243D890238A89DB001A423ED003250969236801985B1A029363695D43EB0F5D1996
:402D4000029B6D1001331B18AB4200D91D00530510D52900380000F037FB061E14D0029A2169FFF7A1FFA289194B134080221343A38112E02A00380000F086FB061E0CD1A7
:402D80002169380000F0D4FA0C23402201203B60A38940421343A38117E0029B2661F61826606561019EED1AA560019BB34200D21E0032000399206800F0A5FA0020A3686D
:402DC0009B1BA36023689E19266005B0F0BDC0467FFBFFFFF0B59FB0029005938B890F0016001B0610D50B69002B0DD1402100F0EBFA38603861002804D10C23029A013830
:402E00001360D8E040237B61002306AD6B6120336B761033AB7634002378002B03D1A31B049312D003E0252BF9D00134F4E7A31B320039000298FFF76BFF431C00D1B4E0F6
:402E40006A69049B944663446B612378002B00D1ABE00122002352426A6002A95432521801342B60EB60AB601370AB65534E21780522300000F03CFA002807D00123801B14
:402E800083402A68013413432B60EFE72B68DA0604D55322202102A8121811701A0704D553222B2102A81218117022782A2A03D0099B00200A210EE0059A111D12680591EF
:402EC000002A01DB099204E05242EA60022213432B6001340BE02278303A092A04D84B4301349B180120F6E7002800D0099323782E2B1ED163782A2B0AD1059B02341A1D34
:402F00001B680592002B01DA01235B42079310E000230A201A0001346B6021783039092904D84243013452180123F6E7002B00D00792234E21780322300000F0D9F90028AD
:402F400006D04023801B83402A68013413432B60217806221B48661C297600F0C9F9002812D0194B002B06D10722059B073393430833059314E005AB00933A00134B290007
:402F8000029800E000BF07E005AB00933A000F4B2900029800F08AF80390039B013304D06B69039A9B186B6135E7BB890B985B0601D5012040421FB0F0BDC04638300100F4
:402FC0003E3001004230010000000000112D0000F7B5170001938A680B6900900C00934200DA130022003B6043321278002A01D001333B6023689B0602D53B6802333B609A
:40300000062523681D401ED0230043331B785A1E9341226892061CD53020E1184331087021005A1C45310978A2184332023311700FE022000123193201990098089EB0470D
:40304000431C0ED00135E3683A689B1A9D42F0DBDAE72200019943320098089DA847431C02D10120404220E006232068E1683A6803400025042B03D18D1AEB43DB171D4073
:40308000A3682269934201DD9B1AED180027BD420AD0220001231A3201990098089EB047431CDED00137F2E70020FEBDF0B58BB006920A0043320793059004920A7E0C0063
:4030C000109B6E2A00D1ABE011D8632A22D009D8002A00D1B5E0582A00D0C5E045310A70814A4FE0642A1DD0692A1BD0BCE0732A00D1AAE009D86F2A29D0702A00D0B3E07A
:40310000202209680A43226037E0752A1FD0782A33D0A9E00E001A684236111D196013683370A4E021681A68080606D4490604D5111D19600023D55E02E0111D19601568CB
:40314000002D3BDA2D23049A6D42137036E021681A68080606D4490604D51568111D1960ADB202E0111D196015685F4B227E039308276F2A1DD00A271BE022007821453240
:4031800011705A4A19680392081D226818600D68100602D4500600D5ADB2D30702D520231A4322601027002D03D1202322689A4322602300002243331A7002E00A274A4B9E
:4031C00003936368A360002B09DB0422216891432160002D05D1049E002B11D07BE0002D79D0049E28003900FFF742FC039B013E5B5C280033703900FFF7B4FB051EF1D17D
:40320000082F09D12368DB0706D563682269934202DC3023013E3370049B9B1B23612BE009681A68080607D4490605D5111D19601368A28A1A8004E0111D19601368626955
:403240001A600023049E236116E01A68111D1960166800216268300000F04AF8002801D0801B6060636803E0260042363270012323610023049A1370079B09AA009321006A
:40328000069B0598FFF7A4FE431C02D10120404227E02369320006990598079DA847431CF4D0236800259B070FD4099BE068984217DA180015E022000123193206990598E6
:4032C000079EB047431CE1D00135E368099A9B1A9D42F0DBE9E72600039B42361B7833708EE70BB0F0BDC046493001005A300100C9B28218904204D003788B4202D001306F
:40330000F8E70020704710B5884202D98B18984201D3002305E09B1A013A08D3995C8154FAE7934203D0CC5CC4540133F9E710BD70B50500002944D00C1F2368002B00DAB3
:40334000E418280000F0D8F81E4A13681100002B02D16360146031E0A3420DD92268A018834203D118685B688218226063600C6024E0A24203D813005A68002AF9D11E68E9
:403380009819A0420BD12168711858181960824214D110685268411819605A600EE0A04202D90C232B6009E021686018824203D1106852684118216062605C60280000F0B3
:4033C0009CF870BD9C090020032370B5CD1C9D43083506000C2D01D20C2501E0002D01DBA94202D90C23336048E0300000F084F8234B1C681A002100002913D00B685B1B5B
:403400000DD40B2B02D90B60CC181EE08C4202D1636813601AE04B6863600C0016E00C004968E9E7174C2368002B03D1300000F051F820602900300000F04CF8431C18D0C5
:403440000323C41C9C43A0420DD12560300000F054F8200007220B30231D9043C31A0ED05A42E2500BE0211A300000F033F8431CEBD10C233000336000F03FF8002070BDA4
:403480009C09002098090020F8B506000C001500002904D11100FFF797FF040018E0002A03D1FFF745FF2C0012E000F027F885420ED929003000FFF787FF071E07D0210016
:4034C0002A00FFF7F1FB21003000FFF731FF3C002000F8BD002370B5064C050008002360FEF7D6FA431C03D12368002B00D02B6070BDC046400A0020704770470B1F1A684E
:40350000101F002A04DA891804390B68D0180438704700000000000064646400646464006464640064646400A0A0A000A0A0A000A0A0A000A0A0A000F0F0F000F0F0F00058
:40354000F0F0F000F0F0F00064646400646464006464640064646400FFFFFF00FFFFFF006969690069696900E3E3E300E3E3E300A0A0A000A0A0A000646464006464640021
:403580006464640064646400A0A0A000A0A0A000A0A0A000A0A0A000F0F0F000F0F0F000F0F0F000F0F0F00064646400646464006464640064646400FFFFFF00FFFFFF0049
:4035C0006969690069696900E3E3E300E3E3E300A0A0A000A0A0A00064646400646464006464640064646400FFFFFF00FFFFFF006969690069696900E3E3E300E3E3E300D1
:40360000A0A0A000A0A0A000303600000000200035000000FF00000000000000300A010000000C0010000000FF0000000000000000000000000000000000000000000000BA
:40364000000000000000000000000000000000000000000000000000000000000000000000000000000000000000000000000000000000000000000000000000000000004A
:40368000000000000000000000000000000000000000000000000000000000000000000000000000000000000000000000000000000000000000000000000000000000000A
:4036C00000000000000000000000000000000000000000000000000000000000000000000000000000000000000000000000000000000000000000000000000000000000CA
:4037000000000000000000000000000000000000000000000000000000000000000000000000000000000000000000000000000000000000000000000000000000F00F008A
:4037400000FC3F0000FFFF00801FF801C003C003E0018007F000000F7000000E381C381C383E7C1C3C3E7C3C1C3E7C381C1C38381C0000381C0000381C0000381C03C0385C
:403780003C03C03C3807E01C381E781C70FC3F0EF0F81F0FE0E18707C003C003801FF80100FFFF0000FC3F0000F00F00000000000000000000000000000000000000000035
:4037C00000000000000000000000000000000000000000000000000000000000000000000000000000000000000000000000000000000000000000000000000000000000C9
:403800000000000000000000000000000000000000F00F0000FC3F0000FFFF0080FFFF01C0FFFF03E0FFFF07F0FFFF0FF0FFFF0FF8E3C71FF8C1831FFCC1833FFCC1833F17
:40384000FCE3C73FFCFFFF3FFCFFFF3FFCFFFF3FFCFC3F3FFCFC3F3FF8F81F1FF8E1871FF003C00FF007E00FE01FF807C0FFFF0380FFFF0100FFFF0000FC3F0000F00F0001
:40388000000000000000000000000000000000000000000000000000000000000000000000000000000000000000000000000000000000000000000000000000C007E0035E
:4038C000F01FF80FF03FFC0FF87FFE1FFC7FFE3FFCFFFF3FFCFFFF3FFEFFFF7FFEFFFF7FFEFFFF7FFEFFFF7FFEFFFF7FFEFFFF7FFEFFFF7FFEFFFF7FFEFFFF7FFCFFFF3F2E
:40390000FCFFFF3FFCFFFF3FF8FFFF1FF8FFFF1FF8FFFF1FF0FFFF0FF0FFFF0FE0FFFF07C0FFFF03C0FFFF0380FFFF0180FFFF0100FFFF0000FE7F0000FC3F0000FC3F0086
:4039400000F81F0000F00F0000E0070000C0030000800100000000000000000000000000000000000000000000000000000000000000000000000000000000000000000006
:4039800000000000000000000000000000000000008000000080000000C0010000E0030000E0030000F0070000F80F0000F81F0000FC1F0000FE3F0000FF7F0000FFFF0097
:4039C00080FFFF01C0FFFF03E0FFFF07F0FFFF0FF8FFFF1FFCFFFF3FFEFFFF7FFCFFFF3FF8FFFF1FF0FFFF0FE0FFFF07C0FFFF03C0FFFF0180FFFF0000FF7F0000FE7F00B3
:403A000000FC3F0000FC1F0000F80F0000F00F0000F0070000E0030000E0030000C001000080000000800000000000000000000000000000000000000000000000000000AC
:403A400000000000000000000000000000000000000000000000000000000000000000000000000000E0070000F00F0000F81F0000FC3F0000FE7F0000FE7F0000FE7F0097
:403A800000FE7F0000FE7F0000FE7F0000FC3F0000FC3F0000F81F00E0FBDF07F8FFFF1FF8FFFF1FFCFFFF3FFEFFFF7FFEFFFF7FFEFFFF7FFEFFFF7FFEFFFF7FFEFFFF7FFC
:403AC000FCBFFF3FFCFFFF3FF8DFFB1FF0CFF30FE0C3C30700C0030000E0070000E0070000E0070000E0070000E0070000E0070000F00F0000F00F0000F00F00000000004B
:403B00000000000000000000000000000000000000000000000000000000000000000000000000000000000000000000000000000000000000000000008000000080010084
:403B400000C0010000E0030000E0070000F0070000F80F0000FC1F0000FC3F0000FE7F0000FFFF0080FFFF00C0FFFF01E0FFFF03F0FFFF07F0FFFF0FF8FFFF1FFCFFFF3F8D
:403B8000FCFFFF3FFEFFFF7FFEFFFF7FFEFFFF7FFEFFFF7FFEFFFF7FFEFFFF7FFCFFFF3FF8DFFB1FF0CFF30FE0C3C30700C0030000E0070000E0070000E0070000E0070033
:403BC00000E0070000F00F0000F00F0000F00F00000000000000000000000000000000000000000000000000000000000000000000000000000000000000000000000000E1
:403C00000000000000000000000000000000000000000000000000000000000000000000000000000000000000000000000000000000000000000000000000000000000084
:403C40000000000000000000000000000000000000000000000000000000000000000000000000000000000000000000000000000000000000000000000000000000000044
:403C80000000000000000000000000000000000000000000000000000000000000000000000000000000000000000000000000000000000000000000000000000000000004
:403CC00000000000000000000000000000000000000000000000000000000000000000000000000000000000000000000000000000000000000000000000000000000000C4
:403D00000000000000000000000000000000000000000000000000000000000000000000000000000000000000000000000000000000000000000000000000000000000083
:403D40000000000000000000000000000000000000000000000000000000000000000000000000000000000000000000000000000000000000000000000000000000000043
:403D80000000000000000000000000000000000000000000000000000000000000000000000000000000000000000000000000000000000000000000000000000000000003
:403DC00000000000000000000000000000000000000000000000000000000000000000000000000000000000000000000000000000000000000000000000000000000000C3
:403E00000000000000000000000000000000000000000000000000000000000000000000000000000000000000000000000000000000000000000000000000000000000082
:403E40000000000000000000000000000000000000000000000000000000000000000000000000000000000000000000000000000000000000000000000000000000000042
:403E80000000000000000000000000000000000000000000000000000000000000000000000000000000000000000000000000000000000000000000000000000000000002
:403EC00000000000000000000000000000000000000000000000000000000000000000000000000000000000000000000000000000000000000000000000000000000000C2
:403F00000000000000000000000000000000000000000000000000000000000000000000000000000000000000000000000000000000000000000000000000000000000081
:403F40000000000000000000000000000000000000000000000000000000000C0000801F0000F81F0080FF1F0080FF3F0080BF3F0000C33F0000C03F0000E0790000F079E2
:403F80000000F0780000F8F0000078F000FE3D3080FF3F00E0FF1F00F0FF3F00F8037F00FC00FC007C00F8003E00F0011E00E0011F00E0030F00C0030F00C0030F00C00368
:403FC0000F00C0030F00C0030F00C0031F00E0031E00E0013E00F0017C00F800FC00FC00F8037F00F0FF3F00E0FF1F0080FF070000FE010000000000000000000000000084
:4040000000000000000000000000000000000000000000000000000000000000000000000000000000000000000000000000000000F00F0000FC3F0000FFFF0080FFFF01C9
:40404000C01FF803E007E007E003C007F001800FF000000FF800001F7800001E7800001E7800001E7800001E7800001EF800001FF000000FF001800FF003C00FE007E00744
:40408000C01FF80380FFFF0100FFFF0000FE7F0000F00F0000C0030000C0030000C0030000C0030000FFFF0000FFFF0000FFFF0000FFFF0000C0030000C0030000C00300E0
:4040C00000C0030000C0030000000000000000000000000000000000000000000000000000000000000000000000000000000000000000000000000000000000000000003A
:40410000000000000000000000000000000000000000000000000000000000000000000000000000000000000000000000000000000000000000000000000000000000007F
:40414000000000000000000000000000000000000000000000000000000000000000000000000000000000000000000000000000000000000000000000000000000000003F
:4041800000000000000000000000000000000000000000000000000000000000000000000000000000000000000000000000000000000000000000000000000000000000FF
:4041C000000000000000000000000000000000000000000000000020000000380000003E0000803F0000F03F0000FC3F0000FF3F00C0FF3B00F0FF3800F83F3800F80F38F3
:4042000000F8033800F800380038003800380038003800380038003800380038003800380038003800380038003800380038003800380038003800380038003800380038FB
:4042400000380038003800380038E03F0038F83F0038FC3F0038FC1F0038FE1F0038FE0F0038FE070038FC030038F800E03F0000F83F0000FC1F0000FE1F0000FE1F0000E9
:40428000FE0F0000FE070000FC030000F8000000000000000000000000000000000000000000000000000000000000000000000000000000000000000000000000000000F5
:4042C0000000000000C0030000C0030000C00300C0C00303E0F18F07E0FFFF07C0FFFF0380FFFF01803FFC01800FF001C007E003C007E003FC03C03FFC03C03FFC03C03FD9
:40430000FC03C03FC007E003C007E003800FF001803FFC0180FFFF01C0FFFF03E0FFFF07E0F18F07C0C0030300C0030000C0030000C0030000000000000000000000000094
:40434000000000000000000000000000000000000000000000000000000000000000000000000000000000000000000000000000000000000000000000000000000000003D
:4043800000000000000000000000000000000000000000000000000000000000020000000E0000003E000000FE000000FE030000FE0F0000FE3F0000FEFF0000FEFF01006B
:4043C000FEFF0700FEFF1F00FEFF7F00FEFFFF01FEFFFF07FEFFFF1FFEFFFF7FFEFFFF1FFEFFFF07FEFFFF01FEFF7F00FEFF1F00FEFF0700FEFF0100FEFF0000FE3F00009C
:40440000FE0F0000FE030000FE0000003E0000000E000000020000000000000000000000000000000000000000000000000000000000000000000000000000000000000022
:4044400000000000000000000000000000000000000000000000000000000000000000000000000000000000000000000000000000000040000000700000007C0000007F91
:404480000000C07F0000F07F0000FC7F0000FF7F0080FF7F00E0FF7F00F8FF7F00FEFF7F80FFFF7FE0FFFF7FF8FFFF7FFEFFFF7FF8FFFF7FE0FFFF7F80FFFF7F00FEFF7F72
:4044C00000F8FF7F00E0FF7F0080FF7F0000FF7F0000FC7F0000F07F0000C07F0000007F0000007C0000007000000040000000000000000000000000000000000000000098
:4045000000000000000000000000000000000000000000000000000000000000000000000000000000000000008001000080010000C0030000E0070000E0070000F00F00E9
:4045400000FC3F0000DE7B0000CFF30000C7E30000C0030000C0030000C0030000C0030000C0030000C0030000C0030000C0030000C0030000C0030000C0030000C0030017
:4045800000C0030000C0030000C0030000C0030000C0030000C0030000C0030000C0030000C0030000C0030000C0030000C0030000C0030000C0030000C7E30000CFF300E5
:4045C00000DE7B0000FC3F0000F00F0000E0070000E0070000C00300008001000080010000000000000000000000000000000000000000000000000000000000001FF8007E
:40460000001FF800001FF800001FF800001FF800001FF800001FF800001FF800001FF800001FF800001FF800001FF800001FF800001FF800001FF800001FF800001FF8000A
:40464000001FF800001FF800001FF800001FF800001FF800001FF800000FF800000E7000000E7000000E70000000000000000000000000000000000000000000803FFC0173
:40468000803FFC01803FFC01803FFC01803FFC01803FFC0100000000000000000000000000000000000000000000000000000000000000000000000000000000000000004E
:4046C0000000000000000000000000000000000000FEFF03C0FFFF03E0FFFF03F0FF8003F0FF8003F8FF8003F8FF8003F8FF8003F8FF8003F8FF8003F8FF8003F8FF8003DE
:40470000F0FF8003F0FF8003E0FF8003C0FF800380FF800300FE800300F8800300E0800300E0800300E0800300E0800300E0800300E0800300E0800300E0800300E0800378
:4047400000E0800300E0800300E0800300E0800300E0800300E0800300E0800300E0800300E0800300E0800300E0800300E0800300E0800300E0800300E0800300E0800309
:4047800000E0800300E0800300000000000000000000000000000000000000000000000000C07F0000F8FF0300FEFF0300FFFF03803FC003800F0000C0070000C00700005A
:4047C000C0070000C0070000C00F0000801F0000807F000000FF010000FE070000FC1F0000FE7F0000CFFF00800FFF018007FC03C007F003C007E007C007E007C007C0079A
:40480000C00FC007801FC007807FC00300FFE00300FEE30100FCFF0000F07F0000E07F000000FF000000FE010000F8030000F0030000E0070000C0070000C0070000C00705
:404840004000C007C001E003C00FF803C0FFFF01C0FFFF0000FF3F0000F80F0000000000000000000000000000000000000000000000000000000000000000000000000001
:404880000000000000000000000000000000000000000000000000000000000000000000000000000000000000000000FCFFFF3FFCFFFF3FFCFFFF3FFCFFFF3FFCFFFF3FDB
:4048C000FCFFFF3FFCFFFF3FFCFFFF3FFCFFFF3F000000000000000000000000000000000000000000000000000000000000000000000000000000000000000000000000D4
:4049000000000000000000000000000000000000000000000000000000000000000000000000000000000000000000000000000000000000000000000000000000800100F6
:404940000080010000C0030000E0070000E0070000F00F0000FC3F0000DE7B0000CFF30000C7E30000C1830000C0030000C0030000C0030000C0030000C0030000C0030050
:4049800000C0030000C0030000C0030000C0030000C0030000C0030000C0030000C0030000C0030000C0030000C0030000C0030000C0030000C0030000C0030000C00300C7
:4049C00000C0030000C0030000C1830000C7E30000CFF30000DE7B0000FC3F0000F00F0000E0070000E0070000C0030000800100008001000000000000000000000000005B
:404A000000FFFF0000FFFF0000FFFF0000FFFF0000000000000000000000000000000000008001000080010000C0030000E0070000E0070000F00F0000FC3F0000FE7F0034
:404A400000CFF30000C7E30000C0030000C0030000C0030000C0030000C0030000C0030000C0030000C0030000C0030000C0030000C0030000C0030000C0030000C0030020
:404A800000C0030000C0030000C0030000C0030000C0030000C0030000C0030000C0030000C0030000C0030000C0030000C0030000C0030000C0030000C0030000C00300C6
:404AC00000C0030000C0030000C0030000C0030000C0030000C003000000000000000000000000000000000000000000000000000000000000C0030000C0030000C00300DB
:404B000000C0030000C0030000C0030000C0030000C0030000C0030000C0030000C0030000C0030000C0030000C0030000C0030000C0030000C0030000C0030000C0030045
:404B400000C0030000C0030000C0030000C0030000C0030000C0030000C0030000C0030000C0030000C0030000C0030000C0030000C0030000C0030000C0030000C0030005
:404B800000C0030000C7E30000CFF30000DE7B0000FC3F0000F00F0000E0070000E0070000C0030000800100008001000000000000000000000000000000000000000000A0
:404BC00000000000000000000000000000000000000000000000000000000000000000000000000000000000000000000000000000000000000000000000000000000000B5
:404C00000000000000003800000070000000F0000000E0010000E0030000C007FCFFFF0FFCFFFF3FFCFFFF3FFCFFFF0F0000C0070000E0030000E0010000F00000007000E2
:404C400000003800000000000000000000000000000000000000000000000000000000000000000000000000000000000000000000000000000000000000000000000000FC
:404C800000000000000000000000000000000000000000000000000000000000000000000000000000000000000000000000000000000000000000000000000000000000F4
:404CC000000000000000000000000000000000000000000000000000001C0000000E0000000F000080070000C0070000E0030000F0FFFF3FFCFFFF3FFCFFFF3FF0FFFF3F7E
:404D0000E0030000C007000080070000000F0000000E0000001C00000000000000000000000000000000000000000000000000000000000000000000000000000000000009
:404D40000000000000000000000000000000000000000000000000000000000000000000000000000000000000000000000000000000000000000000000000000000000033
:404D8000000000000000000000000000000000000000000000000000000000003C0000003C0000003C0000003C0000003C0000003C0000003C0000003C0000003C000000D7
:404DC0003C0000003C0000003C0000003C0000003C0000003C0000003C0000003C0000003C0000003C0000003C0000003C0000003C0000003C000000FCFFFF3FFCFFFF3FF9
:404E0000FCFFFF3FFCFFFF3F000000000000000000000000000000000000000000000000000000000000000000000000000000000000000000000000000000000000000000
:404E40000000000000000000000000000000000000000000000000000000000000000000000000000000000000000000000000000000000000000000000000000000000032
:404E8000001C3800000E7000000FF0008007E001C007E003E003C007F0FFFF0FFCFFFF3FFCFFFF3FF0FFFF0FE003C007C007E0038007E001000FF000000E7000001C38006C
:404EC00000000000000000000000000000000000000000000000000000000000000000000000000000000000000000000000000000000000000000000000000000000000B2
:404F000000000000000000000000000000000000000000000000000000000000000000000000000000000000000000000000000000000000008000000080000000C00100B0
:404F400000C0010000E0030000E0030000F0070000F0070000F00F0000F80F0000F81F0000FC1F0000FC3F0000FE3F0000FE7F0000FF7F0000FFFF0080FFFF0080FFFF0116
:404F8000C0FFFF01C0FFFF03E0FFFF03E0FFFF07E0FFFF07F0FFFF0FF0FFFF0FF8FFFF1FF8FFFF1FFCFFFF3FFCFFFF3FFEFFFF7F00000000000000000000000000000000B5
:404FC00000000000000000000000000000000000000000000000000000000000000000000000000000000000000000000000000000000000000000000000000000000000B1
:405000000000000000000000FEFFFF7FFCFFFF3FFCFFFF3FF8FFFF1FF8FFFF1FF0FFFF0FF0FFFF0FE0FFFF07E0FFFF07E0FFFF03C0FFFF03C0FFFF0180FFFF0180FFFF0037
:4050400000FFFF0000FF7F0000FE7F0000FE3F0000FC3F0000FC1F0000F81F0000F80F0000F00F0000F0070000F0070000E0030000E0030000C0010000C0010000800000D1
:405080000080000000000000000000000000000000000000000000000000000000000000000000000000000000000000000000000000000000000000000000000000000070
:4050C00000000000000000000000000000000000000000000000000000000000000000000000000000000000000000000000000000000000000000000000000000000000B0
:40510000000000000000000000000000000000000000000000000000000000000000000000000000000000000000000000000000000000000000000000000000000000006F
:40514000000000000000000000000000000000000000000000000000000000000000000000000000000000000000000000000000000000000000000000000000000000002F
:40518000000000000000000000000000000000000000000000E0030000E0030000E0030000E0030000E0030000E0030000E0030000E0030000E0030000E0030000E003002E
:4051C00000E0030000E0030000E0030000E0030000E0030000E0030000E0030000E0030000E0030000E0030000E0030000E0030000E0010000C0010000C0010000C00100E7
:40520000000000000000000000000000000000000000000000F0070000F0070000F0070000F0070000F0070000F007000000000000000000000000000000000000000000A4
:4052400000000000000000000000000000000000000000000000000000000000C00FF801C00FF801C00FF801C00FF801C00FF8018007F0008007F0008007F0008007F0006A
:405280008007F0008007F0008007F0008007F0008007F00000000000000000000000000000000000000000000000000000000000000000000000000000000000000000009B
:4052C00000000000000000000000000000000000000000000000000000000000000000000000000000000000000000000000000000000000000000000000000000000000AE
:4053000000000000000000000000000000000000000000000000000000000000000000000000000000000000000000000000000000000000000000000000000000C0030F9B
:4053400000C0030F00E0810700E0810700E0810700E0810700F0C00300F0C00300F0C0030078E0010078E001E0FFFF7FF0FFFF7FF0FFFF7FF0FFFF3F003CF000003CF00034
:40538000001E7800001E7800001E7800000F3C00000F3C00FCFFFF1FFEFFFF1FFEFFFF0FFEFFFF0F80071E0080071E00C0030F00C0030F00C0030F00C0030F00E081070051
:4053C000E0810700E0810700E0810700F0C00300F0C0030000000000000000000000000000000000000000000000000000000000000000000000000000000000000000000F
:405400000000000000800300008003000080030000F03F0000FCFF0100FEFF0300FFFF03809FC303808F0302C08F0300C0870300C0870300C0870300C0870300C08F0300F2
:40544000808F0300809F030000BF030000FE030000FC030000F8070000F00F0000E03F0000807F000080FF000080FF010080FB030080F3030080E3070080C3070080C30729
:405480000080C3070080C3070080C3070080E303E080E303E087FB01E0FFFF01E0FFFF0080FF3F0000FC0F00008003000080030000800300000000000000000000000000F0
:4054C0000000000000000000000000000000000000000000000000000000000000000000000000F0E0070078F81F003CFC3F003C3E7C001E1E78000F1E7880070FF0800773
:405500000FF0C0030FF0E0010FF0E0010FF0F0000FF078001E7878001E783C003C3C1E00FC3F0F00F81F0F00E087070000C0030000C0030000E0E10700F0F81F00F0FC3FAF
:4055400000783C3C003C1E78001E1E78001E0FF0000F0FF080070FF080070FF0C0030FF0E0010FF0E0011E78F0001E7878003C3C3C00FC3F3C00F81F1E00E0070F00000011
:405580000000000000000000000000000000000000000000000000000000000000000000000000000000000000000000000000000000000000E00F0000F83F0000FC7F004A
:4055C00000FEFF00007EFC00003FF801001FF001001FF001001FF001001FF001001FF800003FF800003E7C00003E3F0000FE1F0000FC0F0000FC030000FF0100C0FF010050
:40560000E0FF01F8F0F303F8F8E103F8FCE007F87CC00F783EC00F783E801F783E003F7C3E007F3C3E007E3C3E00FC3E7E00FC1F7E00F80FFC00F00FFC01E007F803F00F0F
:40564000F007FE1FF0FFFF3FC0FF3F7F80FF0FFE00FC01000000000000000000000000000000000000000000000000000000000000000000000000000000000000000000E3
:4056800000F00F0000F00F0000F00F0000F00F0000F00F0000F00F0000E0070000E0070000E0070000E0070000E0070000E0070000E0070000E0070000E0070000E00700EA
:4056C00000000000000000000000000000000000000000000000000000000000000000000000000000000000000000000000000000000000000000000000000000000000AA
:405700000000000000000000000000000000000000000000000000000000000000000000000000000000000000000000000000000000000000000000000000000000000069
:4057400000000000000000000000000000000000000000000000000E0000C00F0000F00F0000F80F0000FE030000FF0000803F0000800F0000C0070000E0070000E0030067
:4057800000F0010000F8010000F8000000F80000007C0000007C0000007C0000007C0000003E0000003E0000003E0000003E0000003E0000003E0000003E0000003E00002F
:4057C000003E0000003E0000003E0000007C0000007C0000007C0000007C000000F8000000F8000000F8010000F0010000E0030000E0070000C0070000800F0000803F0046
:405800000000FF000000FE030000F80F0000F00F0000C00F0000000E0000000000000000000000000000000070000000F0030000F00F0000F01F0000C07F000000FF0000D6
:4058400000FC010000F0010000E0030000E0070000C00F0000800F0000801F0000001F0000001F0000003E0000003E0000003E0000003E0000007C0000007C0000007C00C9
:4058800000007C0000007C0000007C0000007C0000007C0000007C0000007C0000007C0000003E0000003E0000003E0000003E0000001F0000001F0000801F0000800F00A4
:4058C00000C0070000E0070000E0030000F0010000FC010000FF0000C07F0000F01F0000F00F0000F00300007000000000000000000000000000000000000000000000007A
:40590000000000000000000000E0030000E0030000E0030000E0030000E0030020C00102E0C08103E0C3E103E00FF803F01FFC07E00FF803000C180000000000001004004C
:4059400000780F00003C1E00003E3E00001F7C00801FFC00800FF8000007700000041000000000000000000000000000000000000000000000000000000000000000000082
:4059800000000000000000000000000000000000000000000000000000000000000000000000000000000000000000000000000000000000000000000000000000000000E7
:4059C00000000000000000000000000000000000000000000000000000000000000000000000000000000000000000000000000000000000000000000000000000000000A7
:405A0000000000000000000000C0030000C0030000C0030000C0030000C0030000C0030000C0030000C0030000C0030000C0030000C00300FCFFFF3FFCFFFF3FFCFFFF3F5A
:405A4000FCFFFF3F00C0030000C0030000C0030000C0030000C0030000C0030000C0030000C0030000C0030000C0030000C0030000C00300000000000000000000000000C9
:405A800000000000000000000000000000000000000000000000000000000000000000000000000000000000000000000000000000000000000000000000000000000000E6
:405AC00000000000000000000000000000000000000000000000000000000000000000000000000000000000000000000000000000000000000000000000000000000000A6
:405B00000000000000000000000000000000000000000000000000000000000000000000000000000000000000F0070000F0070000F0070000F0070000F0070000F007009B
:405B400000F0070000F007000080070000800700008003000080030000C0030000F0010000F00000003000000000000000000000000000000000000000000000000000004F
:405B800000000000000000000000000000000000000000000000000000000000000000000000000000000000000000000000000000000000000000000000000000000000E5
:405BC0000000000000000000000000000000000000000000E0FFFF07E0FFFF07E0FFFF07E0FFFF070000000000000000000000000000000000000000000000000000000011
:405C00000000000000000000000000000000000000000000000000000000000000000000000000000000000000000000000000000000000000000000000000000000000064
:405C40000000000000000000000000000000000000000000000000000000000000000000000000000000000000000000000000000000000000000000000000000000000024
:405C800000000000000000000000000000000000000000000000000000000000000000000000000000000000000000000000000000000000000000000000000000000000E4
:405CC0000000000000000000000000000000000000F00F0000F00F0000F00F0000F00F0000F00F0000F00F0000F00F0000F00F0000000000000000000000000000000000AC
:405D000000000000000000000000000000000000000000000000000000000000000000000000003C0000001E0000001E0000000F0000000F00008007000080070000C003FC
:405D40000000C0030000E0010000E0010000F0000000F000000078000000780000003C0000003C0000001E0000001E0000000F0000000F00008007000080070000C003002B
:405D800000C0030000C0030000E0010000E0010000F0000000F000000078000000780000003C0000003C0000001E0000001E0000000F0000000F00008007000080070000EB
:405DC000C0030000C0030000E0010000E0010000F0000000F000000078000000780000003C00000000000000000000000000000000000000000000000000000000E0070068
:405E000000FC3F0000FE7F0000FFFF00801FF801C00FF003C007E003E003C007E003C007E0018007F001800FF001800FF001800FF000000FF800001FF800001FF800001F28
:405E4000F800001FF800001FF800001FF800001FF800001FF800001FF800001FF800001FF800001FF000000FF001800FF001800FF001800FE0018007E003C007E003C00718
:405E8000C007E003C00FF003801FF80100FFFF0000FE7F0000FC3F0000E0070000000000000000000000000000000000000000000000000000000000000000000000000041
:405EC0000000000000000000000000000000000000000C0000800F0000F00F0000FE0F00C0FF0F00E0FF0F00E0870F0060800F0000800F0000800F0000800F0000800F009E
:405F000000800F0000800F0000800F0000800F0000800F0000800F0000800F0000800F0000800F0000800F0000800F0000800F0000800F0000800F0000800F0000800F0071
:405F400000800F0000800F0000800F0000800F0000800F0000800F0000800F00E0FFFF3FE0FFFF3FE0FFFF3FE0FFFF3F0000000000000000000000000000000000000000C4
:405F800000000000000000000000000000000000000000000000000000000000000000000000000000FC0300C0FF0F00E0FF3F00E0FF7F00E0037F006000FC000000F800E2
:405FC0000000F8010000F0010000F0010000F0010000F0010000F0010000F0010000F8000000F80000007C0000007C0000003E0000001F0000800F0000C0070000E0030084
:4060000000F0010000F80000007C0000007C0000003E0000001F0000800F0000800F0000C0070000E0070000E0030000F0030000F0FFFF01F0FFFF01F0FFFF01F0FFFF01C4
:40604000000000000000000000000000000000000000000000000000000000000000000000000000000000000000000000000000000000000000000000F80F0080FF3F005B
:4060800080FFFF0080FFFF008007FC018000F0030000F0030000E0030000E0030000E0030000E0030000E0030000F0010000F0010000FC0000007E0000FC1F0000FC0F0009
:4060C00000FC1F0000FC7F000000FF000000F8010000F0030000E0030000E0030000C0070000C0070000C0070000C0070000C0070000C0070000E0070000E0030000F003F2
:406100004000F801C003FE01C0FFFF00C0FF7F00C0FF1F0000FE03000000000000000000000000000000000000000000000000000000000000000000000000000000000089
:40614000000000000000000000000000000000000000F8000000FC000000FE000000FE000000FF000080FF000080FF0000C0FF0000E0FB0000E0F90000F0F90000F8F800E6
:406180000078F800003CF800003EF800001EF800000FF800800FF8008007F800C003F800E003F800F001F800F000F800F800F800F8FFFF1FF8FFFF1FF8FFFF1FF8FFFF1F37
:4061C0000000F8000000F8000000F8000000F8000000F8000000F8000000F8000000F8000000F8000000F800000000000000000000000000000000000000000000000000EF
:4062000000000000000000000000000000000000000000000000000000000000000000000000000000FFFF0300FFFF0300FFFF0300FFFF0300FFFF03000F0000000F00003B
:40624000000F0000000F0000000F0000000F0000000F0000000F0000000F0000000F000000FF010000FF0F0000FF3F0000FF7F000080FF000000FC010000F0030000E0038A
:406280000000E0030000C0070000C0070000C0070000C0070000C0070000C0070000E0070000E0030000F0038000F8018007FE0080FFFF0080FF3F0080FF1F0000FC0300BD
:4062C0000000000000000000000000000000000000000000000000000000000000000000000000000000000000000000000000000000000000807F0000E0FF0700F8FF07BB
:4063000000FCFF0700FE8007003F0004001F0000800F0000C00F0000C0070000C0070000E0030000E0030000E0030000E0010000F0811F00F0E17F00F0F9FF01F0FDFF0346
:40634000F03DF807F00FE007F007C00FF007800FF003801FF003001FF003001FF003001FE003001FE003001FE003001FE003001FC003800FC007800FC00FC00F801FE00723
:40638000003FF00300FFFF0100FEFF0000F87F0000E01F00000000000000000000000000000000000000000000000000000000000000000000000000000000000000000039
:4063C000000000000000000000000000E0FFFF0FE0FFFF0FE0FFFF0FE0FFFF0FE0FFFF0F000080070000C0070000C0030000E0030000E0010000F0000000F80000007800C7
:4064000000007C0000003C0000003E0000001E0000001F0000800F0000800F0000C0070000C0070000E0030000E0030000F0010000F8010000F8000000FC000000FC0000DD
:40644000007E0000007E0000003E0000003F0000003F0000003F0000801F0000801F0000801F00000000000000000000000000000000000000000000000000000000000048
:406480000000000000000000000000000000000000000000000000000000000000E00F0000FC7F0000FEFF0000FFFF01803FFC01800FF003C007F003C007E003C007E0032A
:4064C000C007E003C007E003C00FE001C00FF001801FF001803FF80000FF7C0000FE3F0000FC1F0000F81F0000FE3F0000FFFF00801FFF01C00FFE03C007F803E003F00761
:40650000E003E007F001C00FF001C00FF001800FF001800FF001800FF001800FF003C007E007C007E00FE007C01FF80380FFFF0100FFFF0000FE3F0000F00F000000000040
:4065400000000000000000000000000000000000000000000000000000000000000000000000000000000000000000000000000000F00F0000FC3F0000FEFF0000FFFF01E5
:40658000801FF801C00FF003E007E007E003C007E0038007F001800FF001800FF001800FF001800FF001801FF001801FF001801FF003801FE003C01FE007C01FC00FE01F07
:4065C000C03F781F80FF7F1F00FF3F1F00FC0F1F00F0031F0000000F0000800F0000800F0000800F0000C0070000C0070000E0070000E0030000F0014000F801C003FE0050
:40660000C0FF7F00C0FF3F00C0FF0F0000FC030000000000000000000000000000000000000000000000000000000000000000000000000000000000000000000000000051
:4066400000000000000000000000000000000000000000000000000000000000000000000000000000000000000000000000000000F00F0000F00F0000F00F0000F00F001E
:4066800000F00F0000F00F0000F00F0000F00F00000000000000000000000000000000000000000000000000000000000000000000000000000000000000000000000000DE
:4066C00000F00F0000F00F0000F00F0000F00F0000F00F0000F00F0000F00F0000F00F000000000000000000000000000000000000000000000000000000000000000000A2
:406700000000000000000000000000000000000000000000000000000000000000000000000000000000000000000000000000000000000000000000000000000000000059
:406740000000000000F00F0000F00F0000F00F0000F00F0000F00F0000F00F0000F00F0000F00F000000000000000000000000000000000000000000000000000000000021
:40678000000000000000000000000000000000000000000000F00F0000F00F0000F00F0000F00F0000F00F0000F00F0000F00F0000F00F0000800F00008007000080070044
:4067C00000C0070000C0030000F0030000F00100007000000000000000000000000000000000000000000000000000000000000000000000000000000000000000000000BB
:406800000000000000000000000000000000000000000000000000000000000000000020000000380000003E0000803F0000E01F0000F8070000FE0100C07F0000F01F00B8
:4068400000FC070000FF0100C07F0000F01F0000FC070000F01F0000C07F000000FF010000FC070000F01F0000C07F000000FE010000F8070000E01F0000803F0000003E2B
:406880000000003800000020000000000000000000000000000000000000000000000000000000000000000000000000000000000000000000000000000000000000000080
:4068C0000000000000000000000000000000000000000000000000000000000000000000000000000000000000000000000000000000000000000000000000000000000098
:406900000000000000000000FCFFFF3FFCFFFF3FFCFFFF3FFCFFFF3F000000000000000000000000000000000000000000000000FCFFFF3FFCFFFF3FFCFFFF3FFCFFFF3F8F
:406940000000000000000000000000000000000000000000000000000000000000000000000000000000000000000000000000000000000000000000000000000000000017
:4069800000000000000000000000000000000000000000000000000000000000000000000000000000000000000000000000000000000000000000000000000000000000D7
:4069C00000000000040000001C0000007C000000FC010000F8070000E01F0000807F000000FE030000F80F0000E03F000080FF000000FE030000F80F0000E03F0000F80F2D
:406A00000000FE030080FF0000E03F0000F80F0000FE0300807F0000E01F0000F8070000FC0100007C0000001C000000040000000000000000000000000000000000000019
:406A40000000000000000000000000000000000000000000000000000000000000000000000000000000000000FF0F00F0FF7F00F0FFFF01F0FFFF03F001F807F000E007F3
:406A8000F000C00FF000800FF000800F0000800F0000800F0000C0070000C0070000E0030000F0010000F80000007E0000003F0000800F0000C0070000E0030000F00100BA
:406AC00000F0010000F0000000F8000000F8000000F8000000F80000000000000000000000000000000000000000000000FC010000FC010000FC010000FC010000FC0100E4
:406B000000FC0100000000000000000000000000000000000000000000000000000000000000000000000000000000000000000000000000000000000000000000803F0099
:406B400000F0FF0100FCFF03007EE007001F800F800F000FC007000FC003001EE001F81EF001FE1FF000FF1FF0800F1F7880071E78C0031E78E0011E7CE0011E3CE0011E6B
:406B80003CE0001E3CF0001F3CF0001F3CF0001F3CF0801F3CF0801F3CF0C01F3CF0C01F3CF0E01E7CF0F11E78E0791E78E07F1E78C03FFEF0C01FFEF0000FFEE001000065
:406BC000E0030000C0070000800F0001003FE00100FEFF0100F8FF0100E01F0000000000000000000000000000000000000000000000000000000000000000000000000046
:406C00000000000000000000000000000000000000000000000000000000000000000000000000000000000000E0070000E0070000F00F0000F00F0000F00F0000781F00F2
:406C400000781F00007C3F00003C3E00003C3E00003E7C00001E7C00001FFC00000FF800000FF800800FF0018007F001C007F003C007E003C003E003E003C007E0FFFF07C0
:406C8000F0FFFF0FF0FFFF0FF8FFFF1FF800001FF800001F7C00003F7C00003E7E00007E3E00007C3E00007C3F0000FC000000000000000000000000000000000000000077
:406CC000000000000000000000000000000000000000000000000000000000000000000000000000000000000000000000000000000000000000000000000000E0FF1F0096
:406D0000E0FFFF00E0FFFF03E0FFFF07E003F007E003C00FE003800FE003800FE003800FE003800FE003C007E003E003E003FC01E0FFFF00E0FF3F00E0FF7F00E0FFFF01D2
:406D4000E003FE03E003F007E003C00FE003800FE003801FE003001FE003001FE003001FE003001FE003801FE003800FE003F00FE0FFFF07E0FFFF03E0FFFF01E0FF3F000E
:406D800000000000000000000000000000000000000000000000000000000000000000000000000000000000000000000000000000000000000000000000000000000000D3
:406DC0000000000000000000000000000000FF0300E0FF3F00F8FF3F00FEFF3F00FF013E803F0030C01F0000C00F0000E0070000E0030000F0030000F0010000F001000087
:406E0000F8000000F8000000F8000000F8000000F8000000F8000000F8000000F8000000F8000000F0010000F0010000F0030000E0030000E0070000C00F0000C01F00004D
:406E4000807F002000FF013C00FEFF3F00F8FF3F00E0FF1F0000FF010000000000000000000000000000000000000000000000000000000000000000000000000000000047
:406E8000000000000000000000000000000000000000000000000000000000000000000000000000F8FF0300F8FF1F00F8FF7F00F8FFFF00F800FE01F800F803F800E0078D
:406EC000F800C007F800C00FF800800FF800800FF800801FF800001FF800001FF800001FF800001FF800001FF800001FF800001FF800001FF800001FF800800FF800800F8A
:406F0000F800800FF800C007F800C007F800E003F800F803F800FF01F8FFFF00F8FF7F00F8FF1F00F8FF01000000000000000000000000000000000000000000000000000C
:406F40000000000000000000000000000000000000000000000000000000000000000000000000000000000000000000000000000000000000000000C0FFFF1FC0FFFF1F57
:406F8000C0FFFF1FC0FFFF1FC0070000C0070000C0070000C0070000C0070000C0070000C0070000C0070000C0070000C0070000C0FFFF03C0FFFF03C0FFFF03C0FFFF034D
:406FC000C0070000C0070000C0070000C0070000C0070000C0070000C0070000C0070000C0070000C0070000C0070000C0FFFF3FC0FFFF3FC0FFFF3FC0FFFF3F0000000010
:407000000000000000000000000000000000000000000000000000000000000000000000000000000000000000000000000000000000000000000000000000000000000050
:40704000000000000000000000000000C0FFFF3FC0FFFF3FC0FFFF3FC0FFFF3FC0070000C0070000C0070000C0070000C0070000C0070000C0070000C0070000C00700001D
:40708000C0070000C0070000C0FFFF07C0FFFF07C0FFFF07C0FFFF07C0070000C0070000C0070000C0070000C0070000C0070000C0070000C0070000C0070000C007000068
:4070C000C0070000C0070000C0070000C007000000000000000000000000000000000000000000000000000000000000000000000000000000000000000000000000000074
:40710000000000000000000000000000000000000000000000000000000000000080FF0100F0FF1F00FCFF1F00FFFF1F80FF001FC01F0018E00F0000E0070000F00300002C
:40714000F0010000F8010000F8000000F80000007C0000007C0000007C0000007C0000007C0000007C00FC1F7C00FC1F7C00FC1F7C00FC1FF800001FF800001FF801001F27
:40718000F001001FF003001FE007001FE00F001FC03F001F80FF011F00FFFF1F00FCFF1F00F0FF1F0080FF0000000000000000000000000000000000000000000000000018
:4071C00000000000000000000000000000000000000000000000000000000000000000000000000000000000000000000000000000000000F001800FF001800FF001800F0F
:40720000F001800FF001800FF001800FF001800FF001800FF001800FF001800FF001800FF001800FF001800FF001800FF0FFFF0FF0FFFF0FF0FFFF0FF0FFFF0FF001800F5A
